{
  "_format": "hh-sol-artifact-1",
  "contractName": "Certification",
  "sourceName": "contracts/Certification.sol",
  "abi": [
    {
      "inputs": [],
      "stateMutability": "nonpayable",
      "type": "constructor"
    },
    {
      "inputs": [
        {
          "internalType": "address",
          "name": "sender",
          "type": "address"
        },
        {
          "internalType": "uint256",
          "name": "tokenId",
          "type": "uint256"
        },
        {
          "internalType": "address",
          "name": "owner",
          "type": "address"
        }
      ],
      "name": "ERC721IncorrectOwner",
      "type": "error"
    },
    {
      "inputs": [
        {
          "internalType": "address",
          "name": "operator",
          "type": "address"
        },
        {
          "internalType": "uint256",
          "name": "tokenId",
          "type": "uint256"
        }
      ],
      "name": "ERC721InsufficientApproval",
      "type": "error"
    },
    {
      "inputs": [
        {
          "internalType": "address",
          "name": "approver",
          "type": "address"
        }
      ],
      "name": "ERC721InvalidApprover",
      "type": "error"
    },
    {
      "inputs": [
        {
          "internalType": "address",
          "name": "operator",
          "type": "address"
        }
      ],
      "name": "ERC721InvalidOperator",
      "type": "error"
    },
    {
      "inputs": [
        {
          "internalType": "address",
          "name": "owner",
          "type": "address"
        }
      ],
      "name": "ERC721InvalidOwner",
      "type": "error"
    },
    {
      "inputs": [
        {
          "internalType": "address",
          "name": "receiver",
          "type": "address"
        }
      ],
      "name": "ERC721InvalidReceiver",
      "type": "error"
    },
    {
      "inputs": [
        {
          "internalType": "address",
          "name": "sender",
          "type": "address"
        }
      ],
      "name": "ERC721InvalidSender",
      "type": "error"
    },
    {
      "inputs": [
        {
          "internalType": "uint256",
          "name": "tokenId",
          "type": "uint256"
        }
      ],
      "name": "ERC721NonexistentToken",
      "type": "error"
    },
    {
      "inputs": [
        {
          "internalType": "address",
          "name": "owner",
          "type": "address"
        }
      ],
      "name": "OwnableInvalidOwner",
      "type": "error"
    },
    {
      "inputs": [
        {
          "internalType": "address",
          "name": "account",
          "type": "address"
        }
      ],
      "name": "OwnableUnauthorizedAccount",
      "type": "error"
    },
    {
      "anonymous": false,
      "inputs": [
        {
          "indexed": true,
          "internalType": "address",
          "name": "owner",
          "type": "address"
        },
        {
          "indexed": true,
          "internalType": "address",
          "name": "approved",
          "type": "address"
        },
        {
          "indexed": true,
          "internalType": "uint256",
          "name": "tokenId",
          "type": "uint256"
        }
      ],
      "name": "Approval",
      "type": "event"
    },
    {
      "anonymous": false,
      "inputs": [
        {
          "indexed": true,
          "internalType": "address",
          "name": "owner",
          "type": "address"
        },
        {
          "indexed": true,
          "internalType": "address",
          "name": "operator",
          "type": "address"
        },
        {
          "indexed": false,
          "internalType": "bool",
          "name": "approved",
          "type": "bool"
        }
      ],
      "name": "ApprovalForAll",
      "type": "event"
    },
    {
      "anonymous": false,
      "inputs": [
        {
          "indexed": true,
          "internalType": "uint256",
          "name": "tokenId",
          "type": "uint256"
        }
      ],
      "name": "CertificateBurned",
      "type": "event"
    },
    {
      "anonymous": false,
      "inputs": [
        {
          "indexed": true,
          "internalType": "uint256",
          "name": "certificationId",
          "type": "uint256"
        },
        {
          "indexed": true,
          "internalType": "address",
          "name": "recipient",
          "type": "address"
        },
        {
          "indexed": false,
          "internalType": "uint256",
          "name": "issueDate",
          "type": "uint256"
        },
        {
          "indexed": false,
          "internalType": "uint256",
          "name": "teacher",
          "type": "uint256"
        },
        {
          "indexed": false,
          "internalType": "uint256",
          "name": "student",
          "type": "uint256"
        },
        {
          "indexed": false,
          "internalType": "uint256",
          "name": "course",
          "type": "uint256"
        },
        {
          "indexed": false,
          "internalType": "enum Certification.CertificationType",
          "name": "certificationType",
          "type": "uint8"
        }
      ],
      "name": "CertificationIssued",
      "type": "event"
    },
    {
      "anonymous": false,
      "inputs": [
        {
          "indexed": true,
          "internalType": "address",
          "name": "previousOwner",
          "type": "address"
        },
        {
          "indexed": true,
          "internalType": "address",
          "name": "newOwner",
          "type": "address"
        }
      ],
      "name": "OwnershipTransferred",
      "type": "event"
    },
    {
      "anonymous": false,
      "inputs": [
        {
          "indexed": true,
          "internalType": "address",
          "name": "from",
          "type": "address"
        },
        {
          "indexed": true,
          "internalType": "address",
          "name": "to",
          "type": "address"
        },
        {
          "indexed": true,
          "internalType": "uint256",
          "name": "tokenId",
          "type": "uint256"
        }
      ],
      "name": "Transfer",
      "type": "event"
    },
    {
      "inputs": [
        {
          "internalType": "address",
          "name": "to",
          "type": "address"
        },
        {
          "internalType": "uint256",
          "name": "tokenId",
          "type": "uint256"
        }
      ],
      "name": "approve",
      "outputs": [],
      "stateMutability": "nonpayable",
      "type": "function"
    },
    {
      "inputs": [
        {
          "internalType": "address",
          "name": "owner",
          "type": "address"
        }
      ],
      "name": "balanceOf",
      "outputs": [
        {
          "internalType": "uint256",
          "name": "",
          "type": "uint256"
        }
      ],
      "stateMutability": "view",
      "type": "function"
    },
    {
      "inputs": [
        {
          "internalType": "uint256",
          "name": "tokenId",
          "type": "uint256"
        }
      ],
      "name": "burnCertificate",
      "outputs": [],
      "stateMutability": "nonpayable",
      "type": "function"
    },
    {
      "inputs": [
        {
          "internalType": "uint256",
          "name": "tokenId",
          "type": "uint256"
        }
      ],
      "name": "getApproved",
      "outputs": [
        {
          "internalType": "address",
          "name": "",
          "type": "address"
        }
      ],
      "stateMutability": "view",
      "type": "function"
    },
    {
      "inputs": [
        {
          "internalType": "uint256",
          "name": "certificationId",
          "type": "uint256"
        }
      ],
      "name": "getCertificationMetadata",
      "outputs": [
        {
          "components": [
            {
              "internalType": "uint48",
              "name": "issueDate",
              "type": "uint48"
            },
            {
              "internalType": "uint16",
              "name": "teacher",
              "type": "uint16"
            },
            {
              "internalType": "uint16",
              "name": "student",
              "type": "uint16"
            },
            {
              "internalType": "uint16",
              "name": "course",
              "type": "uint16"
            },
            {
              "internalType": "enum Certification.CertificationType",
              "name": "certificationType",
              "type": "uint8"
            }
          ],
          "internalType": "struct Certification.CertificationMetadata",
          "name": "",
          "type": "tuple"
        }
      ],
      "stateMutability": "view",
      "type": "function"
    },
    {
      "inputs": [
        {
          "internalType": "address",
          "name": "owner",
          "type": "address"
        },
        {
          "internalType": "address",
          "name": "operator",
          "type": "address"
        }
      ],
      "name": "isApprovedForAll",
      "outputs": [
        {
          "internalType": "bool",
          "name": "",
          "type": "bool"
        }
      ],
      "stateMutability": "view",
      "type": "function"
    },
    {
      "inputs": [
        {
          "internalType": "address",
          "name": "recipient",
          "type": "address"
        },
        {
          "internalType": "uint48",
          "name": "issueDate",
          "type": "uint48"
        },
        {
          "internalType": "uint16",
          "name": "teacher",
          "type": "uint16"
        },
        {
          "internalType": "uint16",
          "name": "student",
          "type": "uint16"
        },
        {
          "internalType": "uint16",
          "name": "course",
          "type": "uint16"
        },
        {
          "internalType": "enum Certification.CertificationType",
          "name": "certificationType",
          "type": "uint8"
        }
      ],
      "name": "issueCertification",
      "outputs": [
        {
          "internalType": "uint256",
          "name": "",
          "type": "uint256"
        }
      ],
      "stateMutability": "nonpayable",
      "type": "function"
    },
    {
      "inputs": [],
      "name": "name",
      "outputs": [
        {
          "internalType": "string",
          "name": "",
          "type": "string"
        }
      ],
      "stateMutability": "view",
      "type": "function"
    },
    {
      "inputs": [],
      "name": "owner",
      "outputs": [
        {
          "internalType": "address",
          "name": "",
          "type": "address"
        }
      ],
      "stateMutability": "view",
      "type": "function"
    },
    {
      "inputs": [
        {
          "internalType": "uint256",
          "name": "tokenId",
          "type": "uint256"
        }
      ],
      "name": "ownerOf",
      "outputs": [
        {
          "internalType": "address",
          "name": "",
          "type": "address"
        }
      ],
      "stateMutability": "view",
      "type": "function"
    },
    {
      "inputs": [],
      "name": "renounceOwnership",
      "outputs": [],
      "stateMutability": "nonpayable",
      "type": "function"
    },
    {
      "inputs": [
        {
          "internalType": "address",
          "name": "from",
          "type": "address"
        },
        {
          "internalType": "address",
          "name": "to",
          "type": "address"
        },
        {
          "internalType": "uint256",
          "name": "tokenId",
          "type": "uint256"
        }
      ],
      "name": "safeTransferFrom",
      "outputs": [],
      "stateMutability": "nonpayable",
      "type": "function"
    },
    {
      "inputs": [
        {
          "internalType": "address",
          "name": "from",
          "type": "address"
        },
        {
          "internalType": "address",
          "name": "to",
          "type": "address"
        },
        {
          "internalType": "uint256",
          "name": "tokenId",
          "type": "uint256"
        },
        {
          "internalType": "bytes",
          "name": "data",
          "type": "bytes"
        }
      ],
      "name": "safeTransferFrom",
      "outputs": [],
      "stateMutability": "nonpayable",
      "type": "function"
    },
    {
      "inputs": [
        {
          "internalType": "address",
          "name": "operator",
          "type": "address"
        },
        {
          "internalType": "bool",
          "name": "approved",
          "type": "bool"
        }
      ],
      "name": "setApprovalForAll",
      "outputs": [],
      "stateMutability": "nonpayable",
      "type": "function"
    },
    {
      "inputs": [
        {
          "internalType": "bytes4",
          "name": "interfaceId",
          "type": "bytes4"
        }
      ],
      "name": "supportsInterface",
      "outputs": [
        {
          "internalType": "bool",
          "name": "",
          "type": "bool"
        }
      ],
      "stateMutability": "view",
      "type": "function"
    },
    {
      "inputs": [],
      "name": "symbol",
      "outputs": [
        {
          "internalType": "string",
          "name": "",
          "type": "string"
        }
      ],
      "stateMutability": "view",
      "type": "function"
    },
    {
      "inputs": [
        {
          "internalType": "uint256",
          "name": "tokenId",
          "type": "uint256"
        }
      ],
      "name": "tokenURI",
      "outputs": [
        {
          "internalType": "string",
          "name": "",
          "type": "string"
        }
      ],
      "stateMutability": "view",
      "type": "function"
    },
    {
      "inputs": [
        {
          "internalType": "address",
          "name": "",
          "type": "address"
        },
        {
          "internalType": "address",
          "name": "",
          "type": "address"
        },
        {
          "internalType": "uint256",
          "name": "",
          "type": "uint256"
        }
      ],
      "name": "transferFrom",
      "outputs": [],
      "stateMutability": "pure",
      "type": "function"
    },
    {
      "inputs": [
        {
          "internalType": "address",
          "name": "newOwner",
          "type": "address"
        }
      ],
      "name": "transferOwnership",
      "outputs": [],
      "stateMutability": "nonpayable",
      "type": "function"
    }
  ],
  "bytecode": "0x60806040523480156200001157600080fd5b50336040518060400160405280600d81526020017f43657274696669636174696f6e000000000000000000000000000000000000008152506040518060400160405280600481526020017f434552540000000000000000000000000000000000000000000000000000000081525081600090816200009091906200047a565b508060019081620000a291906200047a565b505050600073ffffffffffffffffffffffffffffffffffffffff168173ffffffffffffffffffffffffffffffffffffffff16036200011a5760006040517f1e4fbdf7000000000000000000000000000000000000000000000000000000008152600401620001119190620005a6565b60405180910390fd5b6200012b816200013a60201b60201c565b506000600781905550620005c3565b6000600660009054906101000a900473ffffffffffffffffffffffffffffffffffffffff16905081600660006101000a81548173ffffffffffffffffffffffffffffffffffffffff021916908373ffffffffffffffffffffffffffffffffffffffff1602179055508173ffffffffffffffffffffffffffffffffffffffff168173ffffffffffffffffffffffffffffffffffffffff167f8be0079c531659141344cd1fd0a4f28419497f9722a3daafe3b4186f6b6457e060405160405180910390a35050565b600081519050919050565b7f4e487b7100000000000000000000000000000000000000000000000000000000600052604160045260246000fd5b7f4e487b7100000000000000000000000000000000000000000000000000000000600052602260045260246000fd5b600060028204905060018216806200028257607f821691505b6020821081036200029857620002976200023a565b5b50919050565b60008190508160005260206000209050919050565b60006020601f8301049050919050565b600082821b905092915050565b600060088302620003027fffffffffffffffffffffffffffffffffffffffffffffffffffffffffffffffff82620002c3565b6200030e8683620002c3565b95508019841693508086168417925050509392505050565b6000819050919050565b6000819050919050565b60006200035b620003556200034f8462000326565b62000330565b62000326565b9050919050565b6000819050919050565b62000377836200033a565b6200038f620003868262000362565b848454620002d0565b825550505050565b600090565b620003a662000397565b620003b38184846200036c565b505050565b5b81811015620003db57620003cf6000826200039c565b600181019050620003b9565b5050565b601f8211156200042a57620003f4816200029e565b620003ff84620002b3565b810160208510156200040f578190505b620004276200041e85620002b3565b830182620003b8565b50505b505050565b600082821c905092915050565b60006200044f600019846008026200042f565b1980831691505092915050565b60006200046a83836200043c565b9150826002028217905092915050565b620004858262000200565b67ffffffffffffffff811115620004a157620004a06200020b565b5b620004ad825462000269565b620004ba828285620003df565b600060209050601f831160018114620004f25760008415620004dd578287015190505b620004e985826200045c565b86555062000559565b601f19841662000502866200029e565b60005b828110156200052c5784890151825560018201915060208501945060208101905062000505565b868310156200054c578489015162000548601f8916826200043c565b8355505b6001600288020188555050505b505050505050565b600073ffffffffffffffffffffffffffffffffffffffff82169050919050565b60006200058e8262000561565b9050919050565b620005a08162000581565b82525050565b6000602082019050620005bd600083018462000595565b92915050565b61280a80620005d36000396000f3fe608060405234801561001057600080fd5b50600436106101215760003560e01c80638da5cb5b116100ad578063c87b56dd11610071578063c87b56dd146102f2578063ce7a7a0114610322578063e73bf9de14610352578063e985e9c514610382578063f2fde38b146103b257610121565b80638da5cb5b1461026257806393b16b451461028057806395d89b411461029c578063a22cb465146102ba578063b88d4fde146102d657610121565b806323b872dd116100f457806323b872dd146101c057806342842e0e146101dc5780636352211e146101f857806370a0823114610228578063715018a61461025857610121565b806301ffc9a71461012657806306fdde0314610156578063081812fc14610174578063095ea7b3146101a4575b600080fd5b610140600480360381019061013b9190611c72565b6103ce565b60405161014d9190611cba565b60405180910390f35b61015e6104b0565b60405161016b9190611d65565b60405180910390f35b61018e60048036038101906101899190611dbd565b610542565b60405161019b9190611e2b565b60405180910390f35b6101be60048036038101906101b99190611e72565b61055e565b005b6101da60048036038101906101d59190611eb2565b610574565b005b6101f660048036038101906101f19190611eb2565b6105af565b005b610212600480360381019061020d9190611dbd565b6105cf565b60405161021f9190611e2b565b60405180910390f35b610242600480360381019061023d9190611f05565b6105e1565b60405161024f9190611f41565b60405180910390f35b61026061069b565b005b61026a6106af565b6040516102779190611e2b565b60405180910390f35b61029a60048036038101906102959190611dbd565b6106d9565b005b6102a461079c565b6040516102b19190611d65565b60405180910390f35b6102d460048036038101906102cf9190611f88565b61082e565b005b6102f060048036038101906102eb91906120fd565b610844565b005b61030c60048036038101906103079190611dbd565b610861565b6040516103199190611d65565b60405180910390f35b61033c6004803603810190610337919061221d565b6108ca565b6040516103499190611f41565b60405180910390f35b61036c60048036038101906103679190611dbd565b610a8f565b60405161037991906123a7565b60405180910390f35b61039c600480360381019061039791906123c2565b610b83565b6040516103a99190611cba565b60405180910390f35b6103cc60048036038101906103c79190611f05565b610c17565b005b60007f80ac58cd000000000000000000000000000000000000000000000000000000007bffffffffffffffffffffffffffffffffffffffffffffffffffffffff1916827bffffffffffffffffffffffffffffffffffffffffffffffffffffffff1916148061049957507f5b5e139f000000000000000000000000000000000000000000000000000000007bffffffffffffffffffffffffffffffffffffffffffffffffffffffff1916827bffffffffffffffffffffffffffffffffffffffffffffffffffffffff1916145b806104a957506104a882610c9d565b5b9050919050565b6060600080546104bf90612431565b80601f01602080910402602001604051908101604052809291908181526020018280546104eb90612431565b80156105385780601f1061050d57610100808354040283529160200191610538565b820191906000526020600020905b81548152906001019060200180831161051b57829003601f168201915b5050505050905090565b600061054d82610d07565b5061055782610d8f565b9050919050565b610570828261056b610dcc565b610dd4565b5050565b6040517f08c379a00000000000000000000000000000000000000000000000000000000081526004016105a6906124d4565b60405180910390fd5b6105ca83838360405180602001604052806000815250610844565b505050565b60006105da82610d07565b9050919050565b60008073ffffffffffffffffffffffffffffffffffffffff168273ffffffffffffffffffffffffffffffffffffffff16036106545760006040517f89c62b6400000000000000000000000000000000000000000000000000000000815260040161064b9190611e2b565b60405180910390fd5b600360008373ffffffffffffffffffffffffffffffffffffffff1673ffffffffffffffffffffffffffffffffffffffff168152602001908152602001600020549050919050565b6106a3610de6565b6106ad6000610e6d565b565b6000600660009054906101000a900473ffffffffffffffffffffffffffffffffffffffff16905090565b6106e1610de6565b6106ea81610f33565b60086000828152602001908152602001600020600080820160006101000a81549065ffffffffffff02191690556000820160066101000a81549061ffff02191690556000820160086101000a81549061ffff021916905560008201600a6101000a81549061ffff021916905560008201600c6101000a81549060ff02191690555050807fb5b5ff4ec0735adc942b77efd721b86b1b579d7afac0c1ae614681eead1dfbe360405160405180910390a250565b6060600180546107ab90612431565b80601f01602080910402602001604051908101604052809291908181526020018280546107d790612431565b80156108245780601f106107f957610100808354040283529160200191610824565b820191906000526020600020905b81548152906001019060200180831161080757829003601f168201915b5050505050905090565b610840610839610dcc565b8383610fb9565b5050565b61084f848484610574565b61085b84848484611128565b50505050565b606061086c82610d07565b5060006108776112df565b9050600081511161089757604051806020016040528060008152506108c2565b806108a1846112f6565b6040516020016108b2929190612530565b6040516020818303038152906040525b915050919050565b60006108d4610de6565b600060075490506108e588826113c4565b60006040518060a001604052808965ffffffffffff1681526020018861ffff1681526020018761ffff1681526020018661ffff168152602001856002811115610931576109306122c8565b5b8152509050806008600084815260200190815260200160002060008201518160000160006101000a81548165ffffffffffff021916908365ffffffffffff16021790555060208201518160000160066101000a81548161ffff021916908361ffff16021790555060408201518160000160086101000a81548161ffff021916908361ffff160217905550606082015181600001600a6101000a81548161ffff021916908361ffff160217905550608082015181600001600c6101000a81548160ff02191690836002811115610a0957610a086122c8565b5b021790555090505060076000815480929190610a2490612583565b91905055508873ffffffffffffffffffffffffffffffffffffffff16827f7ed05b6125a41253f86963dea359c99817d8eac5163e266ada175e6f40f8321c8a8a8a8a8a604051610a78959493929190612646565b60405180910390a381925050509695505050505050565b610a97611bb1565b600860008381526020019081526020016000206040518060a00160405290816000820160009054906101000a900465ffffffffffff1665ffffffffffff1665ffffffffffff1681526020016000820160069054906101000a900461ffff1661ffff1661ffff1681526020016000820160089054906101000a900461ffff1661ffff1661ffff16815260200160008201600a9054906101000a900461ffff1661ffff1661ffff16815260200160008201600c9054906101000a900460ff166002811115610b6657610b656122c8565b5b6002811115610b7857610b776122c8565b5b815250509050919050565b6000600560008473ffffffffffffffffffffffffffffffffffffffff1673ffffffffffffffffffffffffffffffffffffffff16815260200190815260200160002060008373ffffffffffffffffffffffffffffffffffffffff1673ffffffffffffffffffffffffffffffffffffffff16815260200190815260200160002060009054906101000a900460ff16905092915050565b610c1f610de6565b600073ffffffffffffffffffffffffffffffffffffffff168173ffffffffffffffffffffffffffffffffffffffff1603610c915760006040517f1e4fbdf7000000000000000000000000000000000000000000000000000000008152600401610c889190611e2b565b60405180910390fd5b610c9a81610e6d565b50565b60007f01ffc9a7000000000000000000000000000000000000000000000000000000007bffffffffffffffffffffffffffffffffffffffffffffffffffffffff1916827bffffffffffffffffffffffffffffffffffffffffffffffffffffffff1916149050919050565b600080610d13836114bd565b9050600073ffffffffffffffffffffffffffffffffffffffff168173ffffffffffffffffffffffffffffffffffffffff1603610d8657826040517f7e273289000000000000000000000000000000000000000000000000000000008152600401610d7d9190611f41565b60405180910390fd5b80915050919050565b60006004600083815260200190815260200160002060009054906101000a900473ffffffffffffffffffffffffffffffffffffffff169050919050565b600033905090565b610de183838360016114fa565b505050565b610dee610dcc565b73ffffffffffffffffffffffffffffffffffffffff16610e0c6106af565b73ffffffffffffffffffffffffffffffffffffffff1614610e6b57610e2f610dcc565b6040517f118cdaa7000000000000000000000000000000000000000000000000000000008152600401610e629190611e2b565b60405180910390fd5b565b6000600660009054906101000a900473ffffffffffffffffffffffffffffffffffffffff16905081600660006101000a81548173ffffffffffffffffffffffffffffffffffffffff021916908373ffffffffffffffffffffffffffffffffffffffff1602179055508173ffffffffffffffffffffffffffffffffffffffff168173ffffffffffffffffffffffffffffffffffffffff167f8be0079c531659141344cd1fd0a4f28419497f9722a3daafe3b4186f6b6457e060405160405180910390a35050565b6000610f4260008360006116bf565b9050600073ffffffffffffffffffffffffffffffffffffffff168173ffffffffffffffffffffffffffffffffffffffff1603610fb557816040517f7e273289000000000000000000000000000000000000000000000000000000008152600401610fac9190611f41565b60405180910390fd5b5050565b600073ffffffffffffffffffffffffffffffffffffffff168273ffffffffffffffffffffffffffffffffffffffff160361102a57816040517f5b08ba180000000000000000000000000000000000000000000000000000000081526004016110219190611e2b565b60405180910390fd5b80600560008573ffffffffffffffffffffffffffffffffffffffff1673ffffffffffffffffffffffffffffffffffffffff16815260200190815260200160002060008473ffffffffffffffffffffffffffffffffffffffff1673ffffffffffffffffffffffffffffffffffffffff16815260200190815260200160002060006101000a81548160ff0219169083151502179055508173ffffffffffffffffffffffffffffffffffffffff168373ffffffffffffffffffffffffffffffffffffffff167f17307eab39ab6107e8899845ad3d59bd9653f200f220920489ca2b5937696c318360405161111b9190611cba565b60405180910390a3505050565b60008373ffffffffffffffffffffffffffffffffffffffff163b11156112d9578273ffffffffffffffffffffffffffffffffffffffff1663150b7a0261116c610dcc565b8685856040518563ffffffff1660e01b815260040161118e94939291906126ee565b6020604051808303816000875af19250505080156111ca57506040513d601f19601f820116820180604052508101906111c7919061274f565b60015b61124e573d80600081146111fa576040519150601f19603f3d011682016040523d82523d6000602084013e6111ff565b606091505b50600081510361124657836040517f64a0ae9200000000000000000000000000000000000000000000000000000000815260040161123d9190611e2b565b60405180910390fd5b805181602001fd5b63150b7a0260e01b7bffffffffffffffffffffffffffffffffffffffffffffffffffffffff1916817bffffffffffffffffffffffffffffffffffffffffffffffffffffffff1916146112d757836040517f64a0ae920000000000000000000000000000000000000000000000000000000081526004016112ce9190611e2b565b60405180910390fd5b505b50505050565b606060405180602001604052806000815250905090565b606060006001611305846118d9565b01905060008167ffffffffffffffff81111561132457611323611fd2565b5b6040519080825280601f01601f1916602001820160405280156113565781602001600182028036833780820191505090505b509050600082602001820190505b6001156113b9578080600190039150507f3031323334353637383961626364656600000000000000000000000000000000600a86061a8153600a85816113ad576113ac61277c565b5b04945060008503611364575b819350505050919050565b600073ffffffffffffffffffffffffffffffffffffffff168273ffffffffffffffffffffffffffffffffffffffff16036114365760006040517f64a0ae9200000000000000000000000000000000000000000000000000000000815260040161142d9190611e2b565b60405180910390fd5b6000611444838360006116bf565b9050600073ffffffffffffffffffffffffffffffffffffffff168173ffffffffffffffffffffffffffffffffffffffff16146114b85760006040517f73c6ac6e0000000000000000000000000000000000000000000000000000000081526004016114af9190611e2b565b60405180910390fd5b505050565b60006002600083815260200190815260200160002060009054906101000a900473ffffffffffffffffffffffffffffffffffffffff169050919050565b80806115335750600073ffffffffffffffffffffffffffffffffffffffff168273ffffffffffffffffffffffffffffffffffffffff1614155b1561166757600061154384610d07565b9050600073ffffffffffffffffffffffffffffffffffffffff168373ffffffffffffffffffffffffffffffffffffffff16141580156115ae57508273ffffffffffffffffffffffffffffffffffffffff168173ffffffffffffffffffffffffffffffffffffffff1614155b80156115c157506115bf8184610b83565b155b1561160357826040517fa9fbf51f0000000000000000000000000000000000000000000000000000000081526004016115fa9190611e2b565b60405180910390fd5b811561166557838573ffffffffffffffffffffffffffffffffffffffff168273ffffffffffffffffffffffffffffffffffffffff167f8c5be1e5ebec7d5bd14f71427d1e84f3dd0314c0f7b2291e5b200ac8c7c3b92560405160405180910390a45b505b836004600085815260200190815260200160002060006101000a81548173ffffffffffffffffffffffffffffffffffffffff021916908373ffffffffffffffffffffffffffffffffffffffff16021790555050505050565b6000806116cb846114bd565b9050600073ffffffffffffffffffffffffffffffffffffffff168373ffffffffffffffffffffffffffffffffffffffff161461170d5761170c818486611a2c565b5b600073ffffffffffffffffffffffffffffffffffffffff168173ffffffffffffffffffffffffffffffffffffffff161461179e5761174f6000856000806114fa565b6001600360008373ffffffffffffffffffffffffffffffffffffffff1673ffffffffffffffffffffffffffffffffffffffff168152602001908152602001600020600082825403925050819055505b600073ffffffffffffffffffffffffffffffffffffffff168573ffffffffffffffffffffffffffffffffffffffff1614611821576001600360008773ffffffffffffffffffffffffffffffffffffffff1673ffffffffffffffffffffffffffffffffffffffff168152602001908152602001600020600082825401925050819055505b846002600086815260200190815260200160002060006101000a81548173ffffffffffffffffffffffffffffffffffffffff021916908373ffffffffffffffffffffffffffffffffffffffff160217905550838573ffffffffffffffffffffffffffffffffffffffff168273ffffffffffffffffffffffffffffffffffffffff167fddf252ad1be2c89b69c2b068fc378daa952ba7f163c4a11628f55a4df523b3ef60405160405180910390a4809150509392505050565b600080600090507a184f03e93ff9f4daa797ed6e38ed64bf6a1f0100000000000000008310611937577a184f03e93ff9f4daa797ed6e38ed64bf6a1f010000000000000000838161192d5761192c61277c565b5b0492506040810190505b6d04ee2d6d415b85acef81000000008310611974576d04ee2d6d415b85acef8100000000838161196a5761196961277c565b5b0492506020810190505b662386f26fc1000083106119a357662386f26fc1000083816119995761199861277c565b5b0492506010810190505b6305f5e10083106119cc576305f5e10083816119c2576119c161277c565b5b0492506008810190505b61271083106119f15761271083816119e7576119e661277c565b5b0492506004810190505b60648310611a145760648381611a0a57611a0961277c565b5b0492506002810190505b600a8310611a23576001810190505b80915050919050565b611a37838383611af0565b611aeb57600073ffffffffffffffffffffffffffffffffffffffff168373ffffffffffffffffffffffffffffffffffffffff1603611aac57806040517f7e273289000000000000000000000000000000000000000000000000000000008152600401611aa39190611f41565b60405180910390fd5b81816040517f177e802f000000000000000000000000000000000000000000000000000000008152600401611ae29291906127ab565b60405180910390fd5b505050565b60008073ffffffffffffffffffffffffffffffffffffffff168373ffffffffffffffffffffffffffffffffffffffff1614158015611ba857508273ffffffffffffffffffffffffffffffffffffffff168473ffffffffffffffffffffffffffffffffffffffff161480611b695750611b688484610b83565b5b80611ba757508273ffffffffffffffffffffffffffffffffffffffff16611b8f83610d8f565b73ffffffffffffffffffffffffffffffffffffffff16145b5b90509392505050565b6040518060a00160405280600065ffffffffffff168152602001600061ffff168152602001600061ffff168152602001600061ffff16815260200160006002811115611c0057611bff6122c8565b5b81525090565b6000604051905090565b600080fd5b600080fd5b60007fffffffff0000000000000000000000000000000000000000000000000000000082169050919050565b611c4f81611c1a565b8114611c5a57600080fd5b50565b600081359050611c6c81611c46565b92915050565b600060208284031215611c8857611c87611c10565b5b6000611c9684828501611c5d565b91505092915050565b60008115159050919050565b611cb481611c9f565b82525050565b6000602082019050611ccf6000830184611cab565b92915050565b600081519050919050565b600082825260208201905092915050565b60005b83811015611d0f578082015181840152602081019050611cf4565b60008484015250505050565b6000601f19601f8301169050919050565b6000611d3782611cd5565b611d418185611ce0565b9350611d51818560208601611cf1565b611d5a81611d1b565b840191505092915050565b60006020820190508181036000830152611d7f8184611d2c565b905092915050565b6000819050919050565b611d9a81611d87565b8114611da557600080fd5b50565b600081359050611db781611d91565b92915050565b600060208284031215611dd357611dd2611c10565b5b6000611de184828501611da8565b91505092915050565b600073ffffffffffffffffffffffffffffffffffffffff82169050919050565b6000611e1582611dea565b9050919050565b611e2581611e0a565b82525050565b6000602082019050611e406000830184611e1c565b92915050565b611e4f81611e0a565b8114611e5a57600080fd5b50565b600081359050611e6c81611e46565b92915050565b60008060408385031215611e8957611e88611c10565b5b6000611e9785828601611e5d565b9250506020611ea885828601611da8565b9150509250929050565b600080600060608486031215611ecb57611eca611c10565b5b6000611ed986828701611e5d565b9350506020611eea86828701611e5d565b9250506040611efb86828701611da8565b9150509250925092565b600060208284031215611f1b57611f1a611c10565b5b6000611f2984828501611e5d565b91505092915050565b611f3b81611d87565b82525050565b6000602082019050611f566000830184611f32565b92915050565b611f6581611c9f565b8114611f7057600080fd5b50565b600081359050611f8281611f5c565b92915050565b60008060408385031215611f9f57611f9e611c10565b5b6000611fad85828601611e5d565b9250506020611fbe85828601611f73565b9150509250929050565b600080fd5b600080fd5b7f4e487b7100000000000000000000000000000000000000000000000000000000600052604160045260246000fd5b61200a82611d1b565b810181811067ffffffffffffffff8211171561202957612028611fd2565b5b80604052505050565b600061203c611c06565b90506120488282612001565b919050565b600067ffffffffffffffff82111561206857612067611fd2565b5b61207182611d1b565b9050602081019050919050565b82818337600083830152505050565b60006120a061209b8461204d565b612032565b9050828152602081018484840111156120bc576120bb611fcd565b5b6120c784828561207e565b509392505050565b600082601f8301126120e4576120e3611fc8565b5b81356120f484826020860161208d565b91505092915050565b6000806000806080858703121561211757612116611c10565b5b600061212587828801611e5d565b945050602061213687828801611e5d565b935050604061214787828801611da8565b925050606085013567ffffffffffffffff81111561216857612167611c15565b5b612174878288016120cf565b91505092959194509250565b600065ffffffffffff82169050919050565b61219b81612180565b81146121a657600080fd5b50565b6000813590506121b881612192565b92915050565b600061ffff82169050919050565b6121d5816121be565b81146121e057600080fd5b50565b6000813590506121f2816121cc565b92915050565b6003811061220557600080fd5b50565b600081359050612217816121f8565b92915050565b60008060008060008060c0878903121561223a57612239611c10565b5b600061224889828a01611e5d565b965050602061225989828a016121a9565b955050604061226a89828a016121e3565b945050606061227b89828a016121e3565b935050608061228c89828a016121e3565b92505060a061229d89828a01612208565b9150509295509295509295565b6122b381612180565b82525050565b6122c2816121be565b82525050565b7f4e487b7100000000000000000000000000000000000000000000000000000000600052602160045260246000fd5b60038110612308576123076122c8565b5b50565b6000819050612319826122f7565b919050565b60006123298261230b565b9050919050565b6123398161231e565b82525050565b60a08201600082015161235560008501826122aa565b50602082015161236860208501826122b9565b50604082015161237b60408501826122b9565b50606082015161238e60608501826122b9565b5060808201516123a16080850182612330565b50505050565b600060a0820190506123bc600083018461233f565b92915050565b600080604083850312156123d9576123d8611c10565b5b60006123e785828601611e5d565b92505060206123f885828601611e5d565b9150509250929050565b7f4e487b7100000000000000000000000000000000000000000000000000000000600052602260045260246000fd5b6000600282049050600182168061244957607f821691505b60208210810361245c5761245b612402565b5b50919050565b7f43657274696669636174696f6e3a205472616e736665727320617265206e6f7460008201527f20616c6c6f776564000000000000000000000000000000000000000000000000602082015250565b60006124be602883611ce0565b91506124c982612462565b604082019050919050565b600060208201905081810360008301526124ed816124b1565b9050919050565b600081905092915050565b600061250a82611cd5565b61251481856124f4565b9350612524818560208601611cf1565b80840191505092915050565b600061253c82856124ff565b915061254882846124ff565b91508190509392505050565b7f4e487b7100000000000000000000000000000000000000000000000000000000600052601160045260246000fd5b600061258e82611d87565b91507fffffffffffffffffffffffffffffffffffffffffffffffffffffffffffffffff82036125c0576125bf612554565b5b600182019050919050565b6000819050919050565b60006125f06125eb6125e684612180565b6125cb565b611d87565b9050919050565b612600816125d5565b82525050565b600061262161261c612617846121be565b6125cb565b611d87565b9050919050565b61263181612606565b82525050565b6126408161231e565b82525050565b600060a08201905061265b60008301886125f7565b6126686020830187612628565b6126756040830186612628565b6126826060830185612628565b61268f6080830184612637565b9695505050505050565b600081519050919050565b600082825260208201905092915050565b60006126c082612699565b6126ca81856126a4565b93506126da818560208601611cf1565b6126e381611d1b565b840191505092915050565b60006080820190506127036000830187611e1c565b6127106020830186611e1c565b61271d6040830185611f32565b818103606083015261272f81846126b5565b905095945050505050565b60008151905061274981611c46565b92915050565b60006020828403121561276557612764611c10565b5b60006127738482850161273a565b91505092915050565b7f4e487b7100000000000000000000000000000000000000000000000000000000600052601260045260246000fd5b60006040820190506127c06000830185611e1c565b6127cd6020830184611f32565b939250505056fea264697066735822122026d468436e838a8b0b96b751096b69a1915cbed97d307bd52b836474afc6e91864736f6c63430008180033",
  "linkReferences": {},
  "deployedLinkReferences": {}
}